:020000040800F2
:100000000000000041000008000000002D0C000866
:1000100000000000000000007B000008000000005D
:100020000000000000000000000000008D0C00082F
:100030000000000000000000000000008B0000082D
:10004000DFF85CD000F078FE01F020F800F098FEB8
:100050004FF000004FF011314FF022324FF03333A8
:100060004FF0443C4FF0553EFFFFFFFF01DF00F033
:100070001BFE00F0FBFD0B488047684600F088BE81
:10008000B0E8F00F80F3088808472DE9F00F00B5BD
:10009000704601A900F014FE01BCBDE8F00F004756
:1000A00000000120110F00080FB4044910B503AA85
:1000B000029800F05FF810BC5DF814FBF00C002013
:1000C00010B5203AC0F00B80B1E81850203AA0E8F3
:1000D0001850B1E81850A0E81850BFF4F5AF5FEA27
:1000E000027C24BFB1E81850A0E8185044BF18C9DA
:1000F00018C0BDE810405FEA827C24BF51F8043B81
:1001000040F8043B08BF7047D20728BF31F8023BD4
:1001100048BF11F8012B28BF20F8023B48BF00F868
:10012000012B70474FF0000200B5134694469646E7
:10013000203922BFA0E80C50A0E80C50B1F12001FA
:10014000BFF4F7AF090728BFA0E80C5048BF0CC0A8
:100150005DF804EB890028BF40F8042B08BF704706
:1001600048BF20F8022B11F0804F18BF00F8012B78
:1001700070470000074B70B50D467B4400F011F846
:100180000446284600F020F810B14FF0FF3070BD53
:10019000204670BD130D000001694A1C02610878F9
:1001A000704700B58FB0CDE90131002105910549B7
:1001B0007944CDE903101146684600F0FFF80FB00E
:1001C00000BD0000E5FFFFFF007B00F080007047EE
:1001D00010B542485421FFF7A5FF41485421FFF7CD
:1001E000A1FF40485421FFF79DFF3F493B483C4A4F
:1001F0003F4B08603D490A603A491960531C03654A
:10020000481C1065012008653B48344A39A17844F0
:1002100000F0F6F920B9384878440A3800F08CFA32
:1002200037482F4A35A1784400F0EAF920B934481C
:1002300078440A3800F080FA32482A4A2FA17844DC
:1002400000F0DEF920B92F4878440A3800F074FA3B
:1002500040232248DC000021224600F0AEF920B104
:1002600025487844543800F067FA1D482246402358
:10027000002100F0A2F920B121487844543800F060
:100280005BFA184822461023002100F096F9002856
:1002900006D01C487844BDE81040563800F04CBAEF
:1002A00010BD104870B5006D20F001040B4800F03F
:1002B0001DFA0B4800F01AFA0A4800F017FA09E094
:1002C000206D20F00105204600F010FA204600F0D5
:1002D0004EF82C46002CF3D170BD00009C0C002081
:1002E000F00C0020440D00200C0000201000002025
:1002F0001400002072000000CA0E00007700000009
:10030000B60E0000A20E00000EB5CDE9000100F00F
:10031000A9FB029069460120ABBE0EBD08B5694637
:1003200000900220ABBE08BD1FB58DE807006946EE
:100330000520ABBE04B010BD1FB58DE80F006946A7
:100340000620ABBEF6E708B5694600900920ABBEB3
:1003500008BD1CB5CDE9000169460A20ABBE1CBD35
:10036000704708B5694600900C20ABBE08BD70B55B
:100370000446051F00F0E8F90068002C14BF44682B
:1003800070BD002C18BFAC423CBF20466468F8D357
:1003900001680A18AA4218BF456003D12A680546B9
:1003A0001144016028684119A1421CBF6C6070BDF6
:1003B0006168696021680844286070BD2DE9F041DA
:1003C00006460024D6E90170F5688046304603E011
:1003D0004146B847641C3046A8470028F8D120465B
:1003E000BDE8F0812DE9F04705460C46C86820F4C9
:1003F000201040F48000C860800602D5084600F056
:10040000F0FAE06841F282014FF0FF390140022921
:1004100003D0204600F08EFAB5E000F42041B1F59B
:10042000004F0FD1C00306D56168E06A884200D84A
:100430000846606006E02069E06260606069FFF77E
:1004400090FFA061A0680022EEB200280DDAE168FA
:100450008B050AD4C043A06041F490302260E06074
:100460006068411C61600670A5E0E068904622600B
:1004700040F40050E060206968BB6069FFF763FFEB
:10048000012704F12405A0B1A08910F4407F08D011
:10049000E06900F0A4F9206118B1E06840F4006060
:1004A00016E0E7612561E06820F4407040F4806068
:1004B0000EE0E06900F093F900282061F1D0E068D7
:1004C00040F4006010F4407FE06002D140F480709E
:1004D000E06020696060E06825696FF0010AC1058D
:1004E0001FD56168E06A884200D80846411B04D0E5
:1004F0002246284600F028FAF0BBE068010203D546
:10050000E562C4E9015854E0691CE1626160E16997
:1005100040F48030491EC4E9021030462E70BDE818
:10052000F087010202D500F480320AE06068411CC5
:1005300061600670E0680A2E40F48030E06006D00A
:100540000022E16A6068814203D90B4602E0012281
:10055000F7E70346A7895B1B7F0503D4E7699F4242
:1005600000DDE2B1814200D80146E5620F1AC4E91C
:100570000158002B09DD00E005E022461946284617
:1005800000F0E2F908B14846C9E747B1A069E56261
:100590006560C01BA061E06840F01000E060E068AA
:1005A000000208D56168A069E562491B08446560DE
:1005B000A0615046B3E73046B1E770B5C468A507FF
:1005C00013D0650211D4B2F5807F09D0B2F5007F57
:1005D00006D0B2F5806F08D1012300F1240106E0B6
:1005E0005D1E6FF07F46B54201D3012070BD0161F1
:1005F000C361416024F470611143C160002070BD8B
:100600002DE9F0410C4607461646104600F06EF8FC
:100610002078611C61280AD0722802D077283CD14A
:1006200002E00125002405E00225042402E008245C
:1006300048F2020511F8010B2B2806D0622809D0D8
:1006400011F8010C74280AD00BE045F0030544F0C2
:100650000204EFE745F0040544F00104EAE744F042
:10066000100438462146FFF74FFE411C15D00021EB
:10067000316171604FF40071F560F16170612007C4
:1006800004D530460222002100F0D8F8306D40F049
:10069000010030653046BDE8F0810020FBE72DE920
:1006A000F0410D460646104C206DC10704D04108AC
:1006B00004D020F00104F7E722460EE0542000F0B9
:1006C0008EF807000ED0206D47F001010843542139
:1006D00020653846FFF726FD3A4629463046BDE8F4
:1006E000F0418DE70020D6E79C0C00202DE9F04773
:1006F00004464FF000094FF0FF37C568D4E904867F
:10070000A80707D0204600F049F93046FFF706FE5B
:10071000002802DA3846BDE8F087280502D54046B1
:10072000FFF725FE4C212046FFF7FCFC206D20F052
:10073000010020654846EEE710B500F079F9BDE804
:10074000104000F06FB9704700487047980D0020C6
:10075000704770477047704738B504460A46002016
:10076000694600F012FA002808BF38BD0246009919
:10077000204600F0A4F9012038BD012000F0F3B9B3
:10078000F8B500F0F7F9054600200C46102000BF30
:100790000646A819A0420DD932466946002000F04D
:1007A000F4F9070008BF00F0DEF90098A04218BF76
:1007B0000546C419FFF7C8FF05600746F01D20F085
:1007C00007004619284600F073F9B44208BFF8BD87
:1007D000A21B31463868BDE8F84000F070B970B52A
:1007E0000646FFF7B1FF056806F10B0020F007048D
:1007F000B4429CBF002070BD2B466A68BAB1106835
:10080000A04210D304F1080188423CBF50685860F0
:1008100007D35168101941601168091B01605860C5
:100820001460101D70BD13465268002AE7D121469E
:100830002846FFF791FF0028DED170BD2DE9F04179
:10084000044616460D464769007B80072ED0384681
:10085000FFF779FD50BB3EB3012E02D0022E25D109
:1008600004E0204600F045F905441DE03846FFF756
:1008700078FDE168002841F01001E16005DA2046CA
:1008800000F058F80120BDE8F081C9030BD562687B
:10089000E16A914200D81146A26911442269891A7D
:1008A000814200DD08460544002D01DA0220EAE716
:1008B000E16A6068E268814206D29103E06203D592
:1008C00022F4003141F01002A6690027AE4213DC89
:1008D000E16A814201D90B4600E0034603EB060CB6
:1008E0002369ACEB030CAC4506DD814201D98C4693
:1008F00000E084469C4505D1A760276042F02000B7
:10090000A5620DE0AD1BE669AE1B8142A66000D971
:100910000846C01A281A20605819606022F020008A
:1009200003490840E060002084F84870ABE700000D
:10093000BFCFD7FFC16821F4001141F08001C16031
:1009400000218160016070472DE9F047814614461F
:100950000E464FF0FF383248D5685769054209D036
:100960003846A169FFF7F5FC002811DB2C48C0438D
:100970000540E5602B46324649463846FFF7D4FC31
:10098000A16920F00042B21A11440028A16103D0ED
:100990002046FFF7CFFF4046BDE8F08770B504461C
:1009A0000569C06A6168884200D80846E16821F498
:1009B0002011E160C90312D5A84208D02246411B8C
:1009C0002846FFF7C1FF10B14FF0FF3070BD002087
:1009D000E562C4E90150E06820F48030E060002066
:1009E00070BD10B50446C06820F02000E060A16A28
:1009F000A06988420DD02046FFF7D0FFE06820F4C0
:100A0000405040F01000E060A06AA0612069E06200
:100A1000606044F24001E0688843E06010BD00007F
:100A200010000200002801D000F03CB87047000020
:100A300010B5014602A000F07DF8012010BD0000B5
:100A400053494752545245443A205265646972658D
:100A500063743A2063616E2774206F70656E3A206C
:100A60000000000010B5431C02E010F8011B71B13A
:100A70008107FAD14FF0013202C88C1A8C4314EA74
:100A8000C211F9D0C01A0A0603D0C01E10BDC01A88
:100A900010BD0A0401D0801E10BD0902FCD0401E0A
:100AA00010BD000001491820ABBEFEE72600020081
:100AB00000210160C0E90110704710207047034613
:100AC00040688C46002818BF88423CBF03464068F7
:100AD000F8D318681844884207D00CF1030020F0BE
:100AE0000700001D411A521A0146081D0A60FFF74F
:100AF0003EBC10B50146C268900703D0900607D5EA
:100B0000886A0AE000F066F801210160881E10BDC5
:100B10008B69486818440B69C01A91F848301BB1BA
:100B200091F84910401A10BD1103FCD50028FADDD8
:100B3000401E10BD70B505460C460A2000E06D1C35
:100B400000F040F835B128780028F8D102E0641CA4
:100B500000F038F814B120780028F8D1BDE87040D2
:100B60000A2000F02FB810B500F038F8BDE81040AA
:100B7000FFF758BF124B694600F580528A421A604F
:100B800001D8114670471960704730B50C4D6B465F
:100B9000A3F580532C6822449A420FD89B1A02F581
:100BA000805003EBD37302EB6303984200D91846DD
:100BB000C01D20F007020C60101B2A6030BD000031
:100BC0001800002008B569468DF800000320ABBE70
:100BD00008BD0000004870479C0D002010B501289A
:100BE00005D0002103A0FFF7A5FF012010BD09A13A
:100BF000F8E7000053494752544D454D3A204F7590
:100C000074206F662068656170206D656D6F727904
:100C1000000000003A2048656170206D656D6F72BC
:100C20007920636F727275707465640002A000F0C1
:100C3000DFF900BFFEE70000486172644661756C31
:100C4000745F48616E646C65720A0D000146064867
:100C500021B1026822F00102026003E0026842F062
:100C600001020260704700000C0C01400548016859
:100C700041F0080101600448016841F00101016090
:100C80007047000018100240000C014010B502A08F
:100C900000F0AEF910BD00005356435F48616E642A
:100CA0006C65720A0D0000000348044981604160D0
:100CB000072101607047000010E000E0803801006B
:100CC0002DE9F04706468846194F786840F00070D5
:100CD000786000F0FFF808B9BDE8F08715480068B3
:100CE000401C60B90020134908600846006800F005
:100CF000DDF8814631464846FFF7C2F915E00D4858
:100D00000568284600F028F90446A5420DD0414662
:100D1000284600F079F9204600F0C8F881460548D9
:100D2000046031464846FFF7ABF900BFD4E7000046
:100D300000ED00E00800002010B50948094988428C
:100D400002D0094AFFF7BCF908480949884202D095
:100D5000084AFFF7B5F908490848FFF7E3F910BD5D
:100D60000000000800000008E8100000000000205B
:100D7000E81000081C000000840D00001C0000208A
:100D80000248416A41F480214162704700ED00E071
:100D900070B50446144D15A000F02AF919A0216879
:100DA00000F0E8F819A0616800F0E4F819A0A16863
:100DB00000F0E0F819A0E16800F0DCF819A0216962
:100DC00000F0D8F819A0616900F0D4F819A0A16961
:100DD00000F0D0F819A0E16900F0CCF8A86AA86288
:100DE000A069001DA06170BD00ED00E05573616752
:100DF000654661756C745F48616E646C65720A0D5E
:100E000000000000523020203D2000005231202000
:100E10003D200000523220203D200000523320208F
:100E20003D200000523132203D2000004C52202055
:100E30003D200000504320203D20000078505352B8
:100E40003D200000F0B50446D0184038002505606C
:100E500045608560C560056145618561C561016268
:100E600045628562C5620563456384634FF08075A2
:100E7000C563054D2E682D686D1C034F3D60034D05
:100E800045F82600F0BD0000000000201C0C0020EA
:100E90008A68002A01DCFFF7A5BA521E8A604A68F8
:100EA000C0B2531C4B6010707047000001460248EE
:100EB00050F82100704700001C0C0020044900BFBE
:100EC000086800F020000028FAD048687047000049
:100ED000003801400148006870470000040000200D
:100EE00070B503460C4603E025781D70641C5B1C3E
:100EF0001500A2F10102F7D170BD30B5034601E043
:100F000019705B1C1400A2F10102F9D130BD000080
:100F10004FF480630B4A61210B48FFF793FF4FF4B6
:100F200080630A4A62210848FFF78CFF4FF4806310
:100F3000074A00210748FFF785FF00F06BF800BF64
:100F4000FEE700001C000020591000081C040020CF
:100F50001C0800206910000804490868401C044966
:100F60000968884200DB002070470000080000206C
:100F70000000002070B505460C46284600F038F801
:100F8000204600F013F802A000F032F870BD000017
:100F90000D0A0000044900BF0A6802F08002002A1E
:100FA000FAD04860704700000038014070B506462E
:100FB0000EA000F01DF8072514E0A80026FA00F0A6
:100FC00000F00F04002C07DB092C05DC04F13001D4
:100FD000C8B2FFF7DFFF04E004F13701C8B2FFF742
:100FE000D9FF6D1E002DE8DA70BD000030780000DA
:100FF00010B5044603E02078FFF7CCFF641C20788E
:101000000028F8D110BD0000014A42F820107047B6
:101010001C0C002010B50748006830B900200649B4
:10102000086006A0FFF740F810BD012002490860E3
:1010300000BFFEE71C0C0020040000204572726F08
:1010400072212121205461736B206973206E6F74AB
:10105000206372656174210070B50446E5B22846CC
:10106000FFF798FF70BD000070B50646002500240C
:1010700001E02544641C642CFBDD294601A0FFF738
:1010800079FF70BD73756D203D2000001049114837
:10109000026844F204031A4302600F48026822F017
:1010A000F0020260026842F090020260026822F4DC
:1010B00070620260026842F48062026045228A60C7
:1010C00042F20C02CA600A6922F440520A61704777
:1010D0000038014018100240040801403A747400BE
:1010E0003A7474003A7474000000000000000000BC
:1010F000FFFFFFFF000000000000000000000000F4
:0411000000000000EB
:0400000500000000F7
:00000001FF
